{
  "contractName": "StudentListStorage",
  "abi": [
    {
      "inputs": [
        {
          "internalType": "uint256",
          "name": "",
          "type": "uint256"
        }
      ],
      "name": "StudentList",
      "outputs": [
        {
          "internalType": "uint256",
          "name": "id",
          "type": "uint256"
        },
        {
          "internalType": "uint256",
          "name": "age",
          "type": "uint256"
        },
        {
          "internalType": "string",
          "name": "name",
          "type": "string"
        },
        {
          "internalType": "address",
          "name": "account",
          "type": "address"
        }
      ],
      "stateMutability": "view",
      "type": "function",
      "constant": true
    },
    {
      "inputs": [
        {
          "internalType": "string",
          "name": "_name",
          "type": "string"
        },
        {
          "internalType": "uint256",
          "name": "_age",
          "type": "uint256"
        }
      ],
      "name": "addList",
      "outputs": [
        {
          "internalType": "uint256",
          "name": "",
          "type": "uint256"
        }
      ],
      "stateMutability": "nonpayable",
      "type": "function"
    },
    {
      "inputs": [],
      "name": "getList",
      "outputs": [
        {
          "components": [
            {
              "internalType": "uint256",
              "name": "id",
              "type": "uint256"
            },
            {
              "internalType": "uint256",
              "name": "age",
              "type": "uint256"
            },
            {
              "internalType": "string",
              "name": "name",
              "type": "string"
            },
            {
              "internalType": "address",
              "name": "account",
              "type": "address"
            }
          ],
          "internalType": "struct StudentListStorage.Student[]",
          "name": "",
          "type": "tuple[]"
        }
      ],
      "stateMutability": "view",
      "type": "function",
      "constant": true
    }
  ],
  "bytecode": "0x608060405234801561001057600080fd5b50610ca3806100206000396000f3fe608060405234801561001057600080fd5b506004361061005e576000357c0100000000000000000000000000000000000000000000000000000000900480636b29d35f14610063578063942b765a1461009357806395bbc64e146100b1575b600080fd5b61007d600480360381019061007891906105b8565b6100e4565b60405161008a9190610623565b60405180910390f35b61009b6101e5565b6040516100a89190610832565b60405180910390f35b6100cb60048036038101906100c69190610854565b610340565b6040516100db94939291906108da565b60405180910390f35b600080600080549050905060006001826100fe9190610955565b9050600060405180608001604052808381526020018681526020018781526020013373ffffffffffffffffffffffffffffffffffffffff1681525090806001815401808255809150506001900390600052602060002090600402016000909190919091506000820151816000015560208201518160010155604082015181600201908161018b9190610b9b565b5060608201518160030160006101000a81548173ffffffffffffffffffffffffffffffffffffffff021916908373ffffffffffffffffffffffffffffffffffffffff16021790555050506000805490509250505092915050565b60606000805480602002602001604051908101604052809291908181526020016000905b8282101561033757838290600052602060002090600402016040518060800160405290816000820154815260200160018201548152602001600282018054610250906109b8565b80601f016020809104026020016040519081016040528092919081815260200182805461027c906109b8565b80156102c95780601f1061029e576101008083540402835291602001916102c9565b820191906000526020600020905b8154815290600101906020018083116102ac57829003601f168201915b505050505081526020016003820160009054906101000a900473ffffffffffffffffffffffffffffffffffffffff1673ffffffffffffffffffffffffffffffffffffffff1673ffffffffffffffffffffffffffffffffffffffff168152505081526020019060010190610209565b50505050905090565b6000818154811061035057600080fd5b906000526020600020906004020160009150905080600001549080600101549080600201805461037f906109b8565b80601f01602080910402602001604051908101604052809291908181526020018280546103ab906109b8565b80156103f85780601f106103cd576101008083540402835291602001916103f8565b820191906000526020600020905b8154815290600101906020018083116103db57829003601f168201915b5050505050908060030160009054906101000a900473ffffffffffffffffffffffffffffffffffffffff16905084565b6000604051905090565b600080fd5b600080fd5b600080fd5b600080fd5b6000601f19601f8301169050919050565b7f4e487b7100000000000000000000000000000000000000000000000000000000600052604160045260246000fd5b61048f82610446565b810181811067ffffffffffffffff821117156104ae576104ad610457565b5b80604052505050565b60006104c1610428565b90506104cd8282610486565b919050565b600067ffffffffffffffff8211156104ed576104ec610457565b5b6104f682610446565b9050602081019050919050565b82818337600083830152505050565b6000610525610520846104d2565b6104b7565b90508281526020810184848401111561054157610540610441565b5b61054c848285610503565b509392505050565b600082601f8301126105695761056861043c565b5b8135610579848260208601610512565b91505092915050565b6000819050919050565b61059581610582565b81146105a057600080fd5b50565b6000813590506105b28161058c565b92915050565b600080604083850312156105cf576105ce610432565b5b600083013567ffffffffffffffff8111156105ed576105ec610437565b5b6105f985828601610554565b925050602061060a858286016105a3565b9150509250929050565b61061d81610582565b82525050565b60006020820190506106386000830184610614565b92915050565b600081519050919050565b600082825260208201905092915050565b6000819050602082019050919050565b61067381610582565b82525050565b600081519050919050565b600082825260208201905092915050565b60005b838110156106b3578082015181840152602081019050610698565b60008484015250505050565b60006106ca82610679565b6106d48185610684565b93506106e4818560208601610695565b6106ed81610446565b840191505092915050565b600073ffffffffffffffffffffffffffffffffffffffff82169050919050565b6000610723826106f8565b9050919050565b61073381610718565b82525050565b6000608083016000830151610751600086018261066a565b506020830151610764602086018261066a565b506040830151848203604086015261077c82826106bf565b9150506060830151610791606086018261072a565b508091505092915050565b60006107a88383610739565b905092915050565b6000602082019050919050565b60006107c88261063e565b6107d28185610649565b9350836020820285016107e48561065a565b8060005b858110156108205784840389528151610801858261079c565b945061080c836107b0565b925060208a019950506001810190506107e8565b50829750879550505050505092915050565b6000602082019050818103600083015261084c81846107bd565b905092915050565b60006020828403121561086a57610869610432565b5b6000610878848285016105a3565b91505092915050565b600082825260208201905092915050565b600061089d82610679565b6108a78185610881565b93506108b7818560208601610695565b6108c081610446565b840191505092915050565b6108d481610718565b82525050565b60006080820190506108ef6000830187610614565b6108fc6020830186610614565b818103604083015261090e8185610892565b905061091d60608301846108cb565b95945050505050565b7f4e487b7100000000000000000000000000000000000000000000000000000000600052601160045260246000fd5b600061096082610582565b915061096b83610582565b925082820190508082111561098357610982610926565b5b92915050565b7f4e487b7100000000000000000000000000000000000000000000000000000000600052602260045260246000fd5b600060028204905060018216806109d057607f821691505b6020821081036109e3576109e2610989565b5b50919050565b60008190508160005260206000209050919050565b60006020601f8301049050919050565b60008160020a8302905092915050565b600060088302610a4e7fffffffffffffffffffffffffffffffffffffffffffffffffffffffffffffffff82610a0e565b610a588683610a0e565b95508019841693508086168417925050509392505050565b6000819050919050565b6000610a95610a90610a8b84610582565b610a70565b610582565b9050919050565b6000819050919050565b610aaf83610a7a565b610ac3610abb82610a9c565b848454610a1e565b825550505050565b600090565b610ad8610acb565b610ae3818484610aa6565b505050565b5b81811015610b0757610afc600082610ad0565b600181019050610ae9565b5050565b601f821115610b4c57610b1d816109e9565b610b26846109fe565b81016020851015610b35578190505b610b49610b41856109fe565b830182610ae8565b50505b505050565b60008160020a8304905092915050565b6000610b7260001984600802610b51565b1980831691505092915050565b6000610b8b8383610b61565b9150826002028217905092915050565b610ba482610679565b67ffffffffffffffff811115610bbd57610bbc610457565b5b610bc782546109b8565b610bd2828285610b0b565b600060209050601f831160018114610c055760008415610bf3578287015190505b610bfd8582610b7f565b865550610c65565b601f198416610c13866109e9565b60005b82811015610c3b57848901518255600182019150602085019450602081019050610c16565b86831015610c585784890151610c54601f891682610b61565b8355505b6001600288020188555050505b50505050505056fea26469706673582212201fd4f3e7b0718935239c9617f5b88d1ead438ee966a08ac2212b0bf9c46813d464736f6c63430008130033",
  "immutableReferences": {},
  "source": "// SPDX-License-Identifier: GPL-3.0\npragma solidity >=0.4.16 <0.9.0;\n\ncontract StudentListStorage {\n  struct Student{\n    uint id;\n    uint age;\n    string name;\n    address account;\n  }\n\n  Student[] public StudentList;\n\n  function addList(string memory _name, uint _age) public returns (uint) {\n    uint count = StudentList.length;\n    uint index = count + 1;\n    StudentList.push(Student(index, _age, _name, msg.sender));\n    return StudentList.length;\n  }\n\n  function getList() public view returns (Student[] memory) {\n    return StudentList;\n  }\n}\n",
  "sourcePath": "/Users/jumao/sandbox/contract-app/contracts/StudentListStorage.sol",
  "compiler": {
    "name": "solc",
    "version": "0.8.19+commit.7dd6d404.Emscripten.clang"
  },
  "schemaVersion": "3.4.12",
  "updatedAt": "2023-03-22T14:12:44.970Z",
  "networkType": "ethereum",
  "devdoc": {
    "kind": "dev",
    "methods": {},
    "version": 1
  },
  "userdoc": {
    "kind": "user",
    "methods": {},
    "version": 1
  }
}